{
  "contractName": "VendingMachine",
  "abi": [
    {
      "inputs": [],
      "stateMutability": "nonpayable",
      "type": "constructor"
    },
    {
      "inputs": [
        {
          "internalType": "address",
          "name": "",
          "type": "address"
        }
      ],
      "name": "donutBalances",
      "outputs": [
        {
          "internalType": "uint256",
          "name": "",
          "type": "uint256"
        }
      ],
      "stateMutability": "view",
      "type": "function"
    },
    {
      "inputs": [],
      "name": "owner",
      "outputs": [
        {
          "internalType": "address",
          "name": "",
          "type": "address"
        }
      ],
      "stateMutability": "view",
      "type": "function"
    },
    {
      "inputs": [],
      "name": "getVendingMachineBalance",
      "outputs": [
        {
          "internalType": "uint256",
          "name": "",
          "type": "uint256"
        }
      ],
      "stateMutability": "view",
      "type": "function"
    },
    {
      "inputs": [
        {
          "internalType": "uint256",
          "name": "amount",
          "type": "uint256"
        }
      ],
      "name": "restock",
      "outputs": [],
      "stateMutability": "nonpayable",
      "type": "function"
    },
    {
      "inputs": [
        {
          "internalType": "uint256",
          "name": "amount",
          "type": "uint256"
        }
      ],
      "name": "purchase",
      "outputs": [],
      "stateMutability": "payable",
      "type": "function"
    }
  ],
  "bytecode": "0x608060405234801561001057600080fd5b50336000806101000a81548173ffffffffffffffffffffffffffffffffffffffff021916908373ffffffffffffffffffffffffffffffffffffffff1602179055506064600160003073ffffffffffffffffffffffffffffffffffffffff1673ffffffffffffffffffffffffffffffffffffffff168152602001908152602001600020819055506108df806100a56000396000f3fe60806040526004361061004a5760003560e01c80638da5cb5b1461004f5780639a020d8a1461007a578063c21a702a146100b7578063e7644d34146100e0578063efef39a11461010b575b600080fd5b34801561005b57600080fd5b50610064610127565b60405161007191906104c9565b60405180910390f35b34801561008657600080fd5b506100a1600480360381019061009c9190610515565b61014b565b6040516100ae919061055b565b60405180910390f35b3480156100c357600080fd5b506100de60048036038101906100d991906105a2565b610163565b005b3480156100ec57600080fd5b506100f561024a565b604051610102919061055b565b60405180910390f35b610125600480360381019061012091906105a2565b610291565b005b60008054906101000a900473ffffffffffffffffffffffffffffffffffffffff1681565b60016020528060005260406000206000915090505481565b3373ffffffffffffffffffffffffffffffffffffffff1660008054906101000a900473ffffffffffffffffffffffffffffffffffffffff1673ffffffffffffffffffffffffffffffffffffffff16146101f1576040517f08c379a00000000000000000000000000000000000000000000000000000000081526004016101e890610652565b60405180910390fd5b80600160003073ffffffffffffffffffffffffffffffffffffffff1673ffffffffffffffffffffffffffffffffffffffff168152602001908152602001600020600082825461024091906106a1565b9250508190555050565b6000600160003073ffffffffffffffffffffffffffffffffffffffff1673ffffffffffffffffffffffffffffffffffffffff16815260200190815260200160002054905090565b671bc16d674ec80000816102a591906106f7565b3410156102e7576040517f08c379a00000000000000000000000000000000000000000000000000000000081526004016102de906107c3565b60405180910390fd5b80600160003073ffffffffffffffffffffffffffffffffffffffff1673ffffffffffffffffffffffffffffffffffffffff168152602001908152602001600020541015610369576040517f08c379a000000000000000000000000000000000000000000000000000000000815260040161036090610855565b60405180910390fd5b80600160003073ffffffffffffffffffffffffffffffffffffffff1673ffffffffffffffffffffffffffffffffffffffff168152602001908152602001600020546103b49190610875565b600160003073ffffffffffffffffffffffffffffffffffffffff1673ffffffffffffffffffffffffffffffffffffffff1681526020019081526020016000208190555080600160003373ffffffffffffffffffffffffffffffffffffffff1673ffffffffffffffffffffffffffffffffffffffff1681526020019081526020016000205461044291906106a1565b600160003373ffffffffffffffffffffffffffffffffffffffff1673ffffffffffffffffffffffffffffffffffffffff1681526020019081526020016000208190555050565b600073ffffffffffffffffffffffffffffffffffffffff82169050919050565b60006104b382610488565b9050919050565b6104c3816104a8565b82525050565b60006020820190506104de60008301846104ba565b92915050565b600080fd5b6104f2816104a8565b81146104fd57600080fd5b50565b60008135905061050f816104e9565b92915050565b60006020828403121561052b5761052a6104e4565b5b600061053984828501610500565b91505092915050565b6000819050919050565b61055581610542565b82525050565b6000602082019050610570600083018461054c565b92915050565b61057f81610542565b811461058a57600080fd5b50565b60008135905061059c81610576565b92915050565b6000602082840312156105b8576105b76104e4565b5b60006105c68482850161058d565b91505092915050565b600082825260208201905092915050565b7f4f6e6c7920746865206f776e657220697320616c6c6f77656420746f2072657360008201527f746f636b2074686973206d616368696e652e0000000000000000000000000000602082015250565b600061063c6032836105cf565b9150610647826105e0565b604082019050919050565b6000602082019050818103600083015261066b8161062f565b9050919050565b7f4e487b7100000000000000000000000000000000000000000000000000000000600052601160045260246000fd5b60006106ac82610542565b91506106b783610542565b9250827fffffffffffffffffffffffffffffffffffffffffffffffffffffffffffffffff038211156106ec576106eb610672565b5b828201905092915050565b600061070282610542565b915061070d83610542565b9250817fffffffffffffffffffffffffffffffffffffffffffffffffffffffffffffffff048311821515161561074657610745610672565b5b828202905092915050565b7f596f75206861766520746f20706179206174206c65617374203220455448207060008201527f657220646f6e7574000000000000000000000000000000000000000000000000602082015250565b60006107ad6028836105cf565b91506107b882610751565b604082019050919050565b600060208201905081810360008301526107dc816107a0565b9050919050565b7f4e6f7420656e6f7567687420646f6e757320696e2073746f636b20746f20627560008201527f7900000000000000000000000000000000000000000000000000000000000000602082015250565b600061083f6021836105cf565b915061084a826107e3565b604082019050919050565b6000602082019050818103600083015261086e81610832565b9050919050565b600061088082610542565b915061088b83610542565b92508282101561089e5761089d610672565b5b82820390509291505056fea264697066735822122034c58c922ee590ad51dff702ab7bba2e3070125d31fcc1e5c8a6e30a5c3bb37c64736f6c634300080e0033",
  "immutableReferences": {},
  "source": "// SPDX-License-Identifier: GPL-3.0\r\n\r\npragma solidity ^0.8.11;\r\n\r\ncontract  VendingMachine{\r\n  \r\n  address public owner;\r\n  mapping(address=>uint) public donutBalances;\r\n  constructor(){\r\n     owner=msg.sender;\r\n     donutBalances[address(this)]=100;\r\n  }\r\n  function  getVendingMachineBalance() public view returns(uint){\r\n\r\n    return donutBalances[address(this)];\r\n  } \r\n  function restock(uint amount) public{\r\n     require( owner==msg.sender,\"Only the owner is allowed to restock this machine.\");\r\n     donutBalances[address(this)]+=amount;\r\n\r\n  }\r\n  function purchase(uint amount) public payable{\r\n        // change to real price if you want to deploy in testnet\r\n        require(msg.value >= amount * 2 ether, \"You have to pay at least 2 ETH per donut\");\r\n        require(donutBalances[address(this)]>=amount,\"Not enought donus in stock to buy\");\r\n        \r\n        donutBalances[address(this)]=donutBalances[address(this)]-amount;\r\n        donutBalances[msg.sender]=donutBalances[msg.sender]+amount; \r\n\r\n  }\r\n\r\n}",
  "sourcePath": "D:\\BlockChain-World\\BC-Dev_Project\\WEB3_DEV\\JN_Erik\\jn_vending_machine\\contracts\\VendingMachine.sol",
  "compiler": {
    "name": "solc",
    "version": "0.8.14+commit.80d49f37.Emscripten.clang"
  },
  "schemaVersion": "3.4.7",
  "updatedAt": "2022-05-23T16:40:46.615Z",
  "devdoc": {
    "kind": "dev",
    "methods": {},
    "version": 1
  },
  "userdoc": {
    "kind": "user",
    "methods": {},
    "version": 1
  }
}